:020000040000fa
:080000000002040000000000f2
:020000040000fa
:10000800d2020000d2020000d2020000d202000098
:10001800d2020000d2020000d2020000d202000088
:10002800d2020000d2020000d2020000b057000045
:1000380078560000d2020000d2020000d20200006e
:100048002e560000d2020000d20200001841000023
:10005800d2020000d20200000a410000d2020000d1
:10006800d2020000d2020000d2020000d202000038
:10007800d2020000d2020000d2020000d202000028
:10008800d2020000d2020000d2020000d202000018
:1000980056410000d2020000d2020000d202000045
:1000a800d2020000d2020000d2020000d2020000f8
:1000b800d2020000d2020000d2020000d2020000e8
:1000c800d2020000d2020000d2020000d2020000d8
:1000d800d2020000d2020000d2020000d2020000c8
:1000e800d2020000d2020000d2020000d2020000b8
:1000f800d2020000d2020000d2020000d2020000a8
:10010800d2020000d2020000d2020000d202000097
:10011800d2020000d2020000d2020000d202000087
:10012800d2020000d2020000d2020000d202000077
:10013800d2020000d2020000d2020000d202000067
:10014800d2020000d2020000d2020000d202000057
:10015800d2020000d2020000d2020000d202000047
:10016800d2020000d20200004e5600006c56000079
:10017800d2020000d2020000d2020000d202000027
:10018800d2020000d2020000d2020000d202000017
:10019800d2020000d2020000d2020000d202000007
:1001a800d2020000d2020000d2020000d2020000f7
:1001b800d2020000d2020000d2020000d2020000e7
:1001c800d2020000d2020000d2020000d2020000d7
:1001d800d2020000d2020000d2020000d2020000c7
:1001e800d2020000d2020000d2020000d2020000b7
:1001f800d2020000d2020000d2020000d2020000a7
:10020800d2020000d2020000d2020000d202000096
:10021800d2020000d2020000d2020000d202000086
:10022800d2020000d2020000d2020000d202000076
:10023800d2020000d2020000d2020000d202000066
:10024800d2020000d2020000d2020000d202000056
:10025800d2020000d2020000d2020000d202000046
:020000040000fa
:100400004feb21000eff27000e01880000000000c6
:10041000000020000000e000020032000001200087
:10042000200288000c000700208725000100200022
:100430000f000700000020000000e0000200320072
:1004400000000200000000007a4f020000000000df
:100450000040da000000fe00e02c20000000e00078
:1004600002003200002020009001880000000600f9
:10047000a1028800800078000000eb001a0037001d
:10048000e280400054a0b4009101ba00e280400034
:1004900054a0b4009102ba00e280400054a0b4001d
:1004a0000002eb00472bde00f507b200a601880032
:1004b000602ce10008003a000049eb000201e8006e
:1004c000020039003420ec0002f0a0008301e900b2
:1004d000f9ff3e00040037006128e100010032000e
:1004e0000082eb00040007001101ba000200e000e6
:1004f000e3ff3a000000060004d0a300e20f490029
:100500001c003900810278003549ba000201e80078
:10051000020039003420ec0002f0a0008301e90061
:100520000f0032002549ba000201e800020039003c
:100530003420ec0002f0a0008301e9000800320042
:100540000400e0000600320015c9ba000201e8000c
:10055000020039003420ec0002f0a0008301e90021
:100560008180e80054a0b4000300e000e2ff3a00fc
:10057000000006009102ba00055978008301e900e5
:10058000f7ff3200c82ade00055978008301e90030
:10059000f3ff32000400e000f1ff320011d9ba008d
:1005a000eeff37000040da000000fe000a00fa000b
:1005b000e20f500022003e0094f58000e10f52004f
:1005c0000600320087232000462320002423200039
:1005d00005232000e08f530004003a00872220000a
:1005e00046222000242220000522200000002800ae
:1005f0001500600003003a00800b78000700280017
:10060000958a7300054020009482620001003a0040
:1006100014a0a0008202780006003700940378003e
:100620000710b200fdff3200b103fb00070b78009a
:100630008502e900e08f5200f8ff3a000800370019
:10064000340020001007980032079800040f78004b
:10065000210798000e007800f60407003e01900084
:10066000020078000080fa00000006000000fa0096
:100670008412800066026200e60f520002003a0017
:10068000b012800002003700b0128000f00fb200fc
:100690000080fa0000000600839f68000100e0006f
:1006a00002003d0060001000e08018000300e00040
:1006b00002003d0060011100e08119000500070003
:1006c0004f00e00002003b0060001000e0801800d6
:1006d000000006006022b800060220000000d000e2
:1006e0008180d2000482d2008582d2000000a00066
:1006f0000202520083825a000300310002024200cb
:1007000083824a000000a1000603e900f3ff3a00db
:1007100000000600efff07000400be000000060016
:100720000000fa000002780002003700315a780019
:100730000201e900e00f5100fcff3a000080fa00de
:100740000000060004192000000378000000fa00f1
:10075000110009000483d80014002000e08f50002d
:100760000b003200e30263000002eb00848f5200b2
:1007700007003a0044062000110009000483d80055
:1007800001f0a7008100ea000102ea004f22de002a
:10079000040078000080fa000000060014bf20006a
:1007a0000000fa008480b9000080fa0014442f0091
:1007b0000400400044062000110009000480d80015
:1007c00000000600041920000000fa00d2162000e4
:1007d000881f780000047800110009000484d80004
:1007e0004243de00000278000241b800050020000c
:1007f00006034200e0834a0044062000060341004d
:1008000087834900110009000484d8004f04780050
:100810008002780005005300e0805b000080fa0051
:10082000000006000000fa00889fbe0081047800e6
:100830008a9fbe0000047800020578000900e800e5
:10084000d6ff07000a0540000b002000e18f54008e
:100850000a00360008007800baff070024002000d4
:1008600005002000e00f50000200320014002000bc
:10087000050020000405550085855d000800e9009d
:10088000d0ff07000000450081804d004f05be00ed
:100890004f04be000080fa00000006000000fa00cd
:1008a000889fbe00000478008a9fbe00d804900094
:1008b0008c9fbe00a5fb2f00898242000080eb00c8
:1008c0008080eb00e4102000848f520032003e0054
:1008d00038019000c0762000c800900000804400dd
:1008e000d0ff0700120020000006be008000eb00d1
:1008f000207b2000cbff07007200200003002000b7
:100900000005560081855e000c06e9000a00be0065
:100910004c04070072002000030020006400400027
:10092000e08048004704070060049800b07620008b
:1009300000804400a3ff0700820120000300200084
:10094000000656000a00be007c0498004c04070014
:10095000c20320000300200028029000cfa2de0086
:100960000000420081804a00450407001802900000
:10097000c203200003002000cfa2de0000004200de
:1009800081804a003e04070018027800cfa2de00f2
:100990000000420081804a004f06be004f05be00a5
:1009a0004f04be000080fa00000006000c00fa00b0
:1009b000889fbe00f4ff27000004780054079800c9
:1009c0008004eb00080f78001907980028079800aa
:1009d000240c20006801570034079800ceb8970017
:1009e0000e007800060007001e027800094a780011
:1009f0001e0014004f04be000080fa000000060034
:100a00003a00fa00889fbe00011798008a9fbe0036
:100a1000421798008c9fbe00800678000000eb0013
:100a200060179800720337008e10900054c2b30014
:100a30008100e80001179800844f500006003a003a
:100a4000010278000006eb0001c3b30000c2b3004e
:100a5000b7c2b300100037003d0290000404b2009a
:100a6000040032001d027800004a7800840ee8007d
:100a7000050037000000fb008d00780067030700c9
:100a8000e10f40005a0332006e1190000201e800ad
:100a9000621798005603370084027800d3c2b3006f
:100aa00034437800834f53000900320005003c00b6
:100ab000804f530008003200874f53000c003a006b
:100ac00007003700814f530009003a000600370045
:100ad0000c30a000f0ff37000c00a000eeff370044
:100ae0000c10a000ecff37000c20a000eaff37003c
:100af00062026600010032000c00a100680266007c
:100b0000010032000c20a1000602fb000403b1002a
:100b1000e90f52000c003e00050378000002eb00d4
:100b2000b602fb00ea22b9000503b1009603fb0000
:100b3000048242000703b10086027800e98f530067
:100b4000f7ff3600080037000002eb00a7c2b30031
:100b5000874f530004003a004e1390008502e800ce
:100b600046027800461798008003eb00e6c2b30007
:100b700057179800954f13000c003a000ce0a000a6
:100b800064435300d54f130003003200050378007f
:100b900007007800090037004e1490008502e80035
:100ba000c804780048179800591798000503780082
:100bb00009003700ea00b90000804300860278008f
:100bc000b603fb000703b100e98f5300f9ff3600bd
:100bd00050179800f5ff3700b6427800cbc6b30037
:100be000061798008bcf5200250032000f003c0002
:100bf00036c6b30086cf5200a300320004003c008a
:100c0000e0cf5200ff0232006b4353000f00370069
:100c100046c6b30086cf520017003200654343003a
:100c200086cf5200b6003a001300370036c7b30033
:100c300086cf52002000320007003c00644353007e
:100c400086cf5200150032000643e80086cf5200de
:100c5000ab003a001400370056c7b30086cf5200ed
:100c6000ac0032006343430086cf5200a4003a0038
:100c7000054f78000e003700054f7800a7003700b9
:100c8000f003660005012000010032000500280085
:100c90008c82720005067800cfff3700054f780080
:100ca0000c60a0009d003700054f78000c50a0009c
:100cb0000c70a000990037004e109000054f78008e
:100cc000c00278004017980075179800e08f520016
:100cd00002003a00e2dd2100721798007e139000b6
:100ce0008002eb00010037008502e8008503430025
:100cf0008041eb0097cf1100fbff3a00051f9800e1
:100d0000de129000e08f5200050032000e1b9000b2
:100d1000868f52000200310085037800071f98007b
:100d20008e1a90000004eb00850f5200010036007f
:100d3000050452006806660009c2b30011003200c3
:100d40002d0037003d0290000404b2000400320080
:100d50001d027800094a7800840ee800050037007b
:100d60008d00780000022000ac020700e10f400077
:100d7000030032006e1590000a05e8006a1798001b
:100d80000804e900e00f5400eeff3a000084eb0095
:100d900019003700bd0290000504b20009003200be
:100da000880278009d03780035437800864b7800f0
:100db00005047800870ee800e04f53000a003a006f
:100dc00012003700880278008d0078003500fb00a3
:100dd000441f980005047800900207004e1a900006
:100de000e10f4000090032006e1090000000e800a2
:100df0006017980005003700080278007e14900004
:100e00008e1c90001e1d9000ae1d9000890278007f
:100e10008504e900e08f5200deff3a007817980061
:100e2000091f98001a1f98002b1f980004047800cf
:100e3000e00f56006e02320009c2b3006e16900039
:100e40000e0037003d0290000404b200040032009e
:100e50001d027800094a7800840ee800050037007a
:100e60008d007800000220006c020700e10f4000b6
:100e7000010032000c06e8000804e900e00f54000d
:100e8000f0ff3a0059023700ce1090007003660060
:100e90004104780041179800cfc4de0009057800ae
:100ea0008a0578000800be000a01be004800de0086
:100eb000c80add0000807200004f7800e00f530088
:100ec00009003200e04f500007003200e14f4000bf
:100ed000050032002600200010479800284798009f
:100ee000061f98000300370017002000071f980016
:100ef000184798000e04e8007817980080ff370024
:100f00001a002000054f78007e1798000a1f9800ed
:100f10007bff3700054f78000c0cb3008c02780083
:100f2000050cb2003b003a00e00f560005003d0002
:100f3000ce1290004501be004500be004517980046
:100f40000f003700f0026600120032004e149000cd
:100f50004803be00460798005707980048179800b6
:100f600098029000cfaade006507980075079800e8
:100f70004e009000de0090006e019000fe01900097
:100f800070179800011f9800121f9800231f9800e7
:100f90000b003700ce109000c102780005047800e5
:100fa000cfc4de00090578008a0578004117980053
:100fb00078179800091f98001a1f98002b1f980097
:100fc0007e1090008e1890001e199000ae199000af
:100fd000e00f5000e08f5800e00f5900e08f5900fb
:100fe00032003d006000b8006011b8007e1490002f
:100ff0008e1c90001e1d9000ae1d90003c00b300a2
:1010000008045000898458000a0559008b8559004e
:1010100022003700e00f560005003d00ce12900080
:101020004501be004500be00451798000f0037007f
:10103000f0026600120032004e1490008004eb00b3
:101040004803be000005eb00460f9800570f9800bc
:10105000690f98007a0f98004e089000de08900003
:101060006e099000fe0990004817980070179800cc
:10107000011f9800121f9800231f98000b003700d3
:10108000ce109000c1027800411798000504780046
:10109000090020000a0020000b00200078179800ab
:1010a000091f98001a1f98002b1f9800de1490004b
:1010b000e08f54000d003a001a0020007e109000ce
:1010c0008e1890001e199000ae1990005a179800c3
:1010d000e00f5000e08f5800e00f5900e08f5900fa
:1010e000020032008000eb00511798000c017800dc
:1010f00005042000020cb20032179800850f510041
:101100003400320003003c00e00f510008003200c0
:101110004800370005082000be119000858f51005f
:1011200014003200050c2000858f510041003a0068
:10113000e6de210015c0b3003600be003601be0059
:101140007e1490008e1c90001e1d9000ae1d90001d
:101150000040e10001c8e10002d0e10003d8e10055
:10116000330039008542e800f4cf5200f2ff3a0024
:101170002f00370015c0b30000012000010020003f
:101180006011b8007e1490008e1c90001e1d90000f
:10119000ae1d90000040e10001c8e10002d0e10076
:1011a00003d8e10022003900490020000000d000ef
:1011b0008180d2000281d2008381d2008904e900bb
:1011c000faff3a008542e800f0cf5200edff3a0006
:1011d0001700370015c0b300800020000100200078
:1011e0006011b8007e1490008e1c90001e1d9000af
:1011f000ae1d90000040e10001c8e10002d0e10016
:1012000003d8e1000a003900390020000000d000b6
:101210008180d2000281d2008381d2008904e9005a
:10122000faff3a008542e800f5cf5200edff3a00a0
:10123000054f78009e02fb005e1590008a8f5200d9
:1012400002003d000a4f780004003700de159000d0
:10125000858f550001003d0055179800e00f5200a2
:1012600003003200e3026600010032000402e900dc
:101270000500240085026600060032005e10900022
:10128000800f5200020034000002520001003700bb
:101290000002eb008000eb009e02fb00211798008b
:1012a000850f520002003400850252002517980075
:1012b0006402660045003200e202660061026600d8
:1012c000e08f520017003200bd0290000504b2000a
:1012d000080032009d027800b6c2b300e00f520051
:1012e0000100320006c3e800864a7800850ee80057
:1012f00008003700b0022000e00f52000100320069
:101300000080e8008d00780044010700e10f4000f4
:10131000160032006e1190000201e800621798007a
:1013200012003700e00f5200100032003d02900022
:101330000404b200050032001d02780005c2b300ab
:10134000054a7800840ee800050037008d0078001b
:101350000002200031010700e10f400003003200cd
:10136000ee1190008301e800631798002e129000a0
:10137000e00f52005b00320008c3b3008404780021
:101380003d0290000404b200040032001d02780007
:10139000084a7800840ee800050037008d007800c8
:1013a000000320001d010700e10f40000300320090
:1013b000ee1290008502e800651798008904e900a4
:1013c000efff3a0029179800460037002e139000cf
:1013d000e00f5300160032006802660014003a0065
:1013e00008c2b300860478003d0290000404b200f5
:1013f000040032001d027800084a7800840ee800dc
:10140000050037008d00780000022000030107006e
:10141000e10f400003003200ee1390008703e80064
:10142000671798008904e900efff3a002917980030
:10143000e202660061026600e08f5200170032008f
:10144000bd0290000504b200080032009d02780041
:10145000b6c2b300e00f52000100320006c3e8003c
:10146000864a7800850ee80008003700b0022000a8
:10147000e00f5200010032000080e8008d0078008b
:10148000e6000700e10f4000160032006e149000e5
:101490000804e8006817980012003700e00f5200b7
:1014a000100032003d0290000404b200050032003a
:1014b0001d02780005c2b300054a7800840ee800da
:1014c000050037008d00780000022000d3000700df
:1014d000e10f400003003200ee1490008904e800a0
:1014e000691798005e15900064de21008a02e90009
:1014f000f0056600c32add000c007800048242007b
:101500000002b200141798003b07980020079800cb
:101510009c003700de1090003e1190008100e90031
:101520000304200051179800830f51006f00320010
:1015300003003c00e00f5100080032007c0037003f
:1015400004082000be129000848f52005100320027
:10155000040c2000848f520075003a00e00f560002
:101560001b003d001e1390007e1090008e1890000e
:101570001e199000ae1990003604be002605be006c
:101580000802be000a03be00e20107000802be0016
:101590000a03be00004f78000000fb00cf80de0091
:1015a00001017800820178004b0207007e14900050
:1015b0008e1c90001e1d9000ae1d90000004540073
:1015c00081845c0002055d0083855d00200037009a
:1015d000be049000e08f5400220032001e109000e4
:1015e0007e1290008e1a90003004be002005be00ce
:1015f000441f98000400be000801be00351f98007b
:1016000034fc07000801be00004f78000000fb001a
:10161000cf80de001a0107004e1a9000be1a90001b
:101620000001520081815a000002eb00020f980075
:10163000130f9800340f98008001eb00230f9800df
:101640000e0c90009e0c90002e0d9000be0d900090
:1016500078179800091f98001a1f98002b1f9800f0
:10166000090037009e1490007e1590001902780042
:10167000110009000485d800a40020001100090011
:101680000480d800014f78000bc3b3001ecf450083
:1016900027003700d4dc21002e009000e00f50001e
:1016a00001003200c4db2100de109000c20add0020
:1016b0007e1090008e1890001e199000ae199000b8
:1016c0008502e900050033008301d1000281d300c7
:1016d0008180d3000080d300f9ff3700ef02600063
:1016e00005024200144f7800110037005e1190008f
:1016f0007e1490008e1c90001e1d9000ae1d900068
:10170000e312b90001c3b300040078000000e9004f
:10171000050033008b05d1000a85d3008984d300ee
:101720000884d300f9ff370067426400014f42008c
:101730003d0290000404b200070032009d027800d0
:101740001e427800844a7800850ee800e04f52007f
:1017500006003a00080037001e00fb008d007800ec
:101760002e000700e10f4000030032006e119000d0
:101770000201e800621798009e119000e881510074
:10178000131798005e129000e00f520061ff3a00bc
:101790006806660016003200ae129000e08f52001c
:1017a000130034006e16900008c2b3008504780060
:1017b0003d0290000404b200040032001d027800d3
:1017c000084a7800840ee800050037008d00780094
:1017d0000002200011000700e10f4000010032006c
:1017e0000c06e8008904e900f1ff3a006c17980044
:1017f0000e13900016407800004f7800e04f500024
:1018000089fc3a004f06be006e1090004f05be00e6
:101810004f04be000080fa00000006000000fa003d
:10182000889fbe00010478008084eb00380290009d
:10183000e20262003b00320004037800980290004c
:101840000620b20002003a00e08f520035003a0054
:101850000490a0008004780034049800f90fb200ce
:10186000e08f520002003a00a8029000050c7800b8
:10187000ea8f540005003a000408b20003003a0061
:1018800088007800d0002000e4ff070018029000d4
:10189000d8029000850f52000b0032000402e800cd
:1018a00015c0b3001404980018027800094a7800a3
:1018b000040ce800c4ea2100054a7800ea8f5400cd
:1018c00018003a00050037000940780088007800c9
:1018d00018000700800478001200370038029000da
:1018e0000410b2000f00320018019000a800900010
:1018f000480090002dfb070018029000840f500054
:1019000004003200380290000403b300340498004d
:101910008084eb000002eb00140498002802900081
:10192000040c7800090078004f04be000080fa0023
:10193000000006000200fa00889fbe000104780043
:10194000004f780038029000840278000504b2004d
:10195000020032000000fb0033003700e2026200a8
:1019600005003a000403b3001504980034049800fd
:101970000080eb002c003700d8049000e08f54006a
:1019800006003a00120020008e0078004800900007
:1019900006fb07001904980022003700a8029000f7
:1019a000e08f520008003a00f5ea21000430a00060
:1019b00025049800050c78003404980025002000c8
:1019c000550498001504980018019000a800900094
:1019d00048009000f5fa0700280290008082eb0092
:1019e000150498001e4a7800040ce800a4c0b30057
:1019f0009e4f12000b003a00380290000410b20013
:101a00000800320018019000a800900048009000e3
:101a1000e6fa07000002eb00140498002802900088
:101a2000040c78001e00fb004f04be000080fa008a
:101a3000000006000000fa0000c0da000080fa0092
:101a400000000600811f78000100e00002003d0058
:101a500060001000e08018000300e00002003d007c
:101a600060011100e08119002afb07004f00e0002f
:101a700002003b0060001000e0801800000006003b
:101a8000020ab900001bb9000200b8008100420040
:101a900081004300000006000000fa00889fbe009d
:101aa0008a9fbe003004be002005be00040444002e
:101ab00085844c0006054d0087854d000898be00c2
:101ac0000a90be000440e10005c8e10006d0e10034
:101ad00007d8e10002003100680040001008e8006b
:101ae0004f05be004f04be000080fa000000060053
:101af0001000fa00889fbe008a9fbe000605be0047
:101b00000404be003002be002003be00049fbe00dd
:101b10000697be00110020000802520089825a0078
:101b20000a035b008b835b0044079800550798000d
:101b300066079800770798000498be000698be00d4
:101b40003e02be002e03be000820e10009a8e1000d
:101b50000ab0e1000bb8e100010039008000eb00a1
:101b60004f05be00108810004f04be000080fa0030
:101b7000000006001400fa00889fbe005b0007000a
:101b80008a9fbe008c9fbe000006eb004c079800a9
:101b90003c0798002c0798001c0798000c0f780051
:101ba0000605be000404be000d0420004e03900094
:101bb000be029000860343002e029000e00f530007
:101bc00003003d002a000700b3ff070002003700b2
:101bd00027000700c6ff0700ce029000150f9800ef
:101be000e08f520009003500450007001400200076
:101bf000050020006033b800000072008180720090
:101c00000201730083817300380007000c06e800ae
:101c10008d0f5600e5ff3a001e0a9000e00f5200bb
:101c200004003d000802be000a03be000e0078005a
:101c300099ff07004eba9700e00f520006003a00e5
:101c40003e04be002e05be005807980069079800a4
:101c50007a0798000b0f98004f06be002800070077
:101c60004f05be004f04be000080fa0000000600d1
:101c70004f2bde002200070086837300858242001e
:101c80004f23de004707980086827200040242005c
:101c9000350798009e0290004f2bde00858242009f
:101ca00006027200240798001e0278004f23de000f
:101cb0000402420086827200150798004f18de0069
:101cc000000f72000e0007000802be000a03be00eb
:101cd00000004000818048000201490083814900e2
:101ce000020007000e007800000006005007980070
:101cf0006107980072079800030f98000000060023
:101d00005e009000ee0090007e0190008e09900031
:101d1000000006000000fa00881f7800180020006c
:101d2000881f780093ff07008f87e9004f04780031
:101d30000080fa00000006000000fa00801feb009f
:101d40008cff07008f87e9000080fa000000060082
:101d50000000fa00889fbe008a9fbe00e00f50007e
:101d6000e08f5800e00f5900e08f59000c003d0053
:101d70006044b8006055b8000000540081805c00e9
:101d800002015d0083815d0018002000160007003d
:101d900008003d00190007000004eb0005003700b3
:101da0000004eb001000070002003d0013000700d4
:101db00018002000d7ff0700e00f54000600320093
:101dc0006022b8006033b8000000520081805a00e1
:101dd00002015b0083815b004f05be004f04be0023
:101de0000080fa0000000600e00f5200e08f5a0069
:101df000e00f5b00e08f5b00000006006044b8006d
:101e00006055b8000402540085825c0006035d0042
:101e100087835d00000006000000fa00889fbe0076
:101e20008a9fbe008c1f7800e00f5000e08f5800a2
:101e3000e00f5900e08f59000d003d006044b800ec
:101e40006055b8001c0020000000540081805c0038
:101e500002015d0083815d000820e10009a8e10026
:101e60000ab0e1000bb8e1000d003d0008003700aa
:101e70000006eb00e00f5200e08f5a00e00f5b001d
:101e8000e08f5b0006003d006044b8006055b8007c
:101e90000402540085825c0006035d0087835d00b8
:101ea000a5ff0700e00f5600060032006022b800d0
:101eb0006033b8000000520081805a0002015b00cc
:101ec00083815b004f0678004f05be004f04be00c3
:101ed0000080fa00000006000000fa00889fbe00a3
:101ee0008a9fbe008c1f78000006eb00e00f5000b8
:101ef000e08f5800e00f5900e08f590007003d00c7
:101f00006044b8006055b8001c0020000000540078
:101f100081805c0002015d0083815d00e00f520062
:101f2000e08f5a00e00f5b00e08f5b0007003d0090
:101f30006044b8006055b8000c00a20004025400d0
:101f400085825c0006035d0087835d000d0007004d
:101f5000e00f5600060032006022b8006033b8007f
:101f60000000520081805a0002015b0083815b0007
:101f70004f0678004f05be004f04be000080fa00f7
:101f800000000600889fbe008a9fbe008c9fbe0096
:101f90000404b8000506b8008904460060854e00b8
:101fa0000606b8000a054600e0854e000706b800a0
:101fb0008b054600040eb800890446000a854e00d1
:101fc000e0854d00050eb8000a0546008b854e00e1
:101fd000060eb8008b0546000416b8000a05460038
:101fe0008b854e000516b8008b054600041eb80010
:101ff0008b0546000800be000a01be004f06be0069
:0c2000004f05be004f04be0000000600ab
:020000040000fa
:10200c0000000000000000000000000000000000c4
:10201c0000000000000000000000000000000000b4
:10202c000000000000100000101000001010000054
:10203c001010000000000000181800000000000044
:10204c0000120000362400004800000000000000d0
:10205c000000000000000000000000000000000074
:10206c00000000000024000024240000fe480000b2
:10207c0048480000fe4800004848000000000000ee
:10208c0000000000103800005454000050300000d4
:10209c0018140000145400005438000010100000f4
:1020ac000000000000440000a4a80000a8a8000044
:1020bc00541a00002a2a00002a44000000000000e4
:1020cc0000000000003000004848000048500000ac
:1020dc006ea40000948800008976000000000000c7
:1020ec000060000060200000c00000000000000044
:1020fc0000000000000000000000000000000000d4
:10210c00000200000408000008100000101000007d
:10211c00101000001008000008040000020000006d
:10212c00004000002010000010080000080800000b
:10213c0008080000081000001020000040000000fb
:10214c00000000000000000010100000d638000055
:10215c0038d6000010100000000000000000000045
:10216c000000000000000000101000001010000023
:10217c00fe10000010100000100000000000000015
:10218c000000000000000000000000000000000043
:10219c0000000000000000006060000020c0000093
:1021ac000000000000000000000000000000000023
:1021bc007f00000000000000000000000000000094
:1021cc000000000000000000000000000000000003
:1021dc000000000000000000606000000000000033
:1021ec0000000000010200000204000004080000ce
:1021fc0008100000102000002040000040000000eb
:10220c0000000000001800002442000042420000c0
:10221c00424200004242000024180000000000006e
:10222c0000000000001000007010000010100000f2
:10223c001010000010100000107c000000000000c6
:10224c0000000000003c000042420000420400007c
:10225c000408000010200000427e00000000000076
:10226c0000000000003c0000424200000418000086
:10227c00040200000242000044380000000000008c
:10228c0000000000000400000c14000024240000d6
:10229c00444400007e040000041e00000000000006
:1022ac0000000000007e000040400000405800008c
:1022bc0064020000024200004438000000000000ec
:1022cc0000000000001c00002440000040580000ea
:1022dc00644200004242000024180000000000008c
:1022ec0000000000007e00004444000008080000cc
:1022fc001010000010100000101000000000000072
:10230c0000000000003c000042420000422400009b
:10231c001824000042420000423c00000000000073
:10232c00000000000018000024420000424200009f
:10233c00261a0000020200002438000000000000f1
:10234c000000000000000000000000001818000051
:10235c000000000000000000181800000000000041
:10236c000000000000000000000000000010000051
:10237c000000000000000000001000001020000011
:10238c000000000000020000040800001020000003
:10239c0040200000100800000402000000000000b3
:1023ac00000000000000000000000000fe00000023
:1023bc0000000000fe000000000000000000000013
:1023cc000000000000400000201000000804000085
:1023dc000204000008100000204000000000000073
:1023ec0000000000003c00004242000062020000bd
:1023fc00040800000800000018180000000000008d
:10240c000000000000380000445a0000aaaa000096
:10241c00aaaa0000b44200004438000000000000ea
:10242c000000000000100000101800002828000018
:10243c00243c00004442000042e700000000000081
:10244c000000000000f80000444400004478000044
:10245c00444200004242000044f80000000000002a
:10246c0000000000003e000042420000808000009e
:10247c008080000080420000443800000000000012
:10248c000000000000f8000044420000424200003e
:10249c00424200004242000044f8000000000000ec
:1024ac000000000000fc00004248000048780000da
:1024bc00484800004042000042fc000000000000c0
:1024cc000000000000fc00004248000048780000ba
:1024dc00484800004040000040e0000000000000c0
:1024ec0000000000003c000044440000808000001c
:1024fc00808e00008444000044380000000000007e
:10250c000000000000e700004242000042420000d0
:10251c007e4200004242000042e700000000000042
:10252c0000000000007c00001010000010100000e3
:10253c001010000010100000107c000000000000c3
:10254c0000000000003e0000080800000808000021
:10255c0008080000080800000808000088f00000c7
:10256c000000000000ee0000444800005070000025
:10257c00504800004844000044ee000000000000f9
:10258c000000000000e0000040400000404000005f
:10259c00404000004040000042fe000000000000ef
:1025ac000000000000ee00006c6c00006c6c000081
:1025bc00545400005454000054d600000000000095
:1025cc000000000000c700006262000052520000d0
:1025dc004a4a00004a46000046e2000000000000a3
:1025ec0000000000001800002442000042420000dd
:1025fc00424200004242000024180000000000008b
:10260c000000000000fc00004242000042420000ba
:10261c007c4000004040000040e000000000000052
:10262c00000000000038000044820000828200009c
:10263c0082820000b2ca00004c3800000600000084
:10264c000000000000fc000042420000427c000040
:10265c00484800004444000042e300000000000031
:10266c0000000000003e000042420000402000003c
:10267c001804000002420000427c00000000000030
:10268c000000000000fe000092100000101000007e
:10269c0010100000101000001038000000000000a6
:1026ac000000000000e7000042420000424200002f
:1026bc004242000042420000423c00000000000088
:1026cc000000000000e7000042420000442400002b
:1026dc002428000028180000101000000000000042
:1026ec000000000000d600009292000092920000c0
:1026fc00aaaa00006c440000444400000000000042
:10270c000000000000e70000422400002418000034
:10271c00181800002424000042e70000000000000c
:10272c000000000000ee00004444000028280000d7
:10273c001010000010100000103800000000000005
:10274c0000000000007e0000840400000808000067
:10275c00102000002042000042fc0000000000009d
:10276c00001e0000101000001010000010100000df
:10277c001010000010100000101000001e000000cf
:10278c00000000004040000020200000101000005d
:10279c0010080000080400000404000002020000fd
:1027ac000078000008080000080800000808000075
:1027bc000808000008080000080800007800000065
:1027cc00001c0000220000000000000000000000bf
:1027dc0000000000000000000000000000000000ed
:1027ec0000000000000000000000000000000000dd
:1027fc0000000000000000000000000000ff0000ce
:10280c00006000001000000000000000000000004c
:10281c0000000000000000000000000000000000ac
:10282c00000000000000000000000000003c000060
:10283c00421e000022420000423f00000000000047
:10284c000000000000c000004040000040580000a4
:10285c006442000042420000645800000000000086
:10286c00000000000000000000000000001c000040
:10287c002240000040400000221c0000000000002c
:10288c00000000000006000002020000021e000012
:10289c002242000042420000261b00000000000003
:1028ac00000000000000000000000000003c0000e0
:1028bc00427e000040400000423c0000000000004e
:1028cc0000000000000f000011100000107e00003e
:1028dc001010000010100000107c00000000000020
:1028ec00000000000000000000000000003e00009e
:1028fc0044440000384000003c420000423c0000d0
:10290c000000000000c0000040400000405c0000df
:10291c00624200004242000042e70000000000005a
:10292c0000000000003000003000000000700000cb
:10293c001010000010100000107c000000000000bf
:10294c0000000000000c00000c000000001c000047
:10295c000404000004040000040400004478000097
:10296c000000000000c0000040400000404e00008d
:10297c00485000006848000044ee000000000000d1
:10298c00000000000070000010100000101000008b
:10299c001010000010100000107c0000000000005f
:1029ac0000000000000000000000000000fe00001d
:1029bc00494900004949000049ed000000000000b1
:1029cc0000000000000000000000000000dc00001f
:1029dc00624200004242000042e70000000000009a
:1029ec00000000000000000000000000003c00009f
:1029fc004242000042420000423c00000000000045
:102a0c0000000000000000000000000000d80000e2
:102a1c0064420000424200004478000040e00000a4
:102a2c00000000000000000000000000001e00007c
:102a3c002242000042420000221e00000207000059
:102a4c0000000000000000000000000000ee00008c
:102a5c00322000002020000020f8000000000000c0
:102a6c00000000000000000000000000003e00001c
:102a7c00424000003c020000427c000000000000cc
:102a8c00000000000000000000100000107c00009e
:102a9c001010000010100000100c000000000000ce
:102aac0000000000000000000000000000c6000054
:102abc004242000042420000463b00000000000081
:102acc0000000000000000000000000000e7000013
:102adc004224000024280000101000000000000018
:102aec0000000000000000000000000000d7000003
:102afc0092920000aaaa00004444000000000000ca
:102b0c00000000000000000000000000006e00004b
:102b1c0024180000181800002476000000000000a3
:102b2c0000000000000000000000000000e70000b2
:102b3c0042240000242800001810000010e00000bf
:102b4c00000000000000000000000000007e0000fb
:102b5c004408000010100000227e0000000000005d
:102b6c00000300000404000004040000040800003a
:102b7c00040400000404000004040000030000002e
:102b8c0008080000080800000808000008080000f9
:102b9c0008080000080800000808000008080000e9
:102bac000060000010100000101000001008000061
:102bbc001010000010100000101000006000000049
:102bcc00304c00004300000000000000000000003a
:102bdc0000000000000000000000000000000000e9
:102bec0000000000000000000000000000000000d9
:102bfc0000000000000000000000000000000000c9
:020000040000fa
:102c0c0000000000000000000000000000000000b8
:102c1c001010000010100000000000001000000058
:102c2c002828000028000000000000000000000020
:102c3c00282800007c2800007c28000028000000c8
:102c4c00103c000050380000147800001000000008
:102c5c006064000008100000204c00000c00000014
:102c6c0030480000502000005448000034000000a0
:102c7c0030100000200000000000000000000000e8
:102c8c0008100000202000002010000008000000a8
:102c9c0020100000080800000810000020000000b0
:102cac000010000054380000541000000000000018
:102cbc0000100000107c000010100000000000004c
:102ccc000000000000000000301000002000000098
:102cdc0000000000007c000000000000000000006c
:102cec000000000000000000003000003000000078
:102cfc00000400000810000020400000000000004c
:102d0c00384400004c5400006444000038000000bb
:102d1c0010300000101000001010000038000000ef
:102d2c003844000004080000102000007c00000063
:102d3c007c0800001008000004440000380000006b
:102d4c0008180000284800007c080000080000005b
:102d5c007c400000780400000444000038000000af
:102d6c0018200000407800004444000038000000a7
:102d7c007c0400000810000010100000100000007f
:102d8c00384400004438000044440000380000007f
:102d9c0038440000443c00000408000030000000ef
:102dac000030000030000000303000000000000057
:102dbc000030000030000000301000002000000047
:102dcc000810000020400000201000000800000047
:102ddc00000000007c0000007c00000000000000ef
:102dec002010000008040000081000002000000063
:102dfc00384400000408000010000000100000001f
:102e0c003844000004340000545400003800000022
:102e1c0038440000444400007c440000440000009e
:102e2c0078240000243800002424000078000000de
:102e3c0038440000404000004044000038000000ce
:102e4c0078240000242400002424000078000000d2
:102e5c007c400000407c0000404000007c000000f2
:102e6c007c40000040780000404000004000000022
:102e7c0038440000404c0000444400003c0000007a
:102e8c0044440000447c0000444400004400000022
:102e9c003810000010100000101000003800000066
:102eac001c08000008080000084800003000000062
:102ebc0044480000506000005048000044000000ee
:102ecc004040000040400000404000007c000000fa
:102edc00446c0000545400004444000044000000c2
:102eec0044640000645400004c4c0000440000009a
:102efc003844000044440000444400003800000002
:102f0c00784400004478000040400000400000007d
:102f1c0038440000444400005448000034000000d1
:102f2c007844000044780000504800004400000041
:102f3c003844000040380000044400003800000011
:102f4c007c10000010100000101000001000000099
:102f5c004444000044440000444400003800000095
:102f6c0044440000444400004428000010000000c9
:102f7c004444000044540000546c00004400000021
:102f8c0044440000281000002844000044000000c5
:102f9c004444000044280000101000001000000001
:102fac007c04000008100000204000007c000000a1
:102fbc0038200000202000002020000038000000f5
:102fcc000040000020100000080400000000000079
:102fdc00380800000808000008080000380000004d
:102fec001028000044000000000000000000000059
:102ffc000000000000000000000000007c00000049
:10300c004020000010000000000000000000000044
:10301c0000000000380400003c4400003c000000ac
:10302c004040000058640000444400007800000058
:10303c00000000003844000040440000380000004c
:10304c0004040000344c0000444400003c00000028
:10305c0000000000384400007c40000038000000f4
:10306c0008140000103800001010000010000000c0
:10307c00003400004c4c0000340400003800000008
:10308c00404000005864000044440000440000002c
:10309c00100000003010000010100000380000007c
:1030ac00080000001808000008480000300000006c
:1030bc0020200000242800003028000024000000fc
:1030cc00301000001010000010100000380000003c
:1030dc00000000006854000054540000540000002c
:1030ec00000000005864000044440000440000004c
:1030fc000000000038440000444400003800000088
:10310c0000580000646400005840000040000000bb
:10311c00003400004c4c000034040000040000009b
:10312c000000000058640000404000004000000017
:10313c00000000003c400000780400007c0000000f
:10314c002020000070200000202400001800000047
:10315c00000000004848000048480000340000000f
:10316c00000000004444000044280000100000004f
:10317c0000000000444400005454000028000000eb
:10318c00000000004428000010280000440000004b
:10319c0000000000444400004c34000004380000df
:1031ac00000000007c080000102000007c000000e3
:1031bc000810000010200000101000000800000093
:1031cc001010000010000000101000001000000093
:1031dc00201000001008000010100000200000005b
:1031ec002054000008000000000000000000000057
:1031fc007c7c00007c7c00007c7c00007c7c0000e3
:020000040000fa
:10320c0000c100008140000001c0000080410000ae
:10321c0001c000008041000000c10000814000009e
:10322c0001c000008041000000c10000814000008e
:10323c0000c100008140000001c00000804100007e
:10324c0001c000008041000000c10000814000006e
:10325c0000c100008140000001c00000804100005e
:10326c0000c100008140000001c00000804100004e
:10327c0001c000008041000000c10000814000003e
:10328c0001c000008041000000c10000814000002e
:10329c0000c100008140000001c00000804100001e
:1032ac0000c100008140000001c00000804100000e
:1032bc0001c000008041000000c1000081400000fe
:1032cc0000c100008140000001c0000080410000ee
:1032dc0001c000008041000000c1000081400000de
:1032ec0001c000008041000000c1000081400000ce
:1032fc0000c100008140000001c0000080410000be
:10330c0001c000008041000000c1000081400000ad
:10331c0000c100008140000001c00000804100009d
:10332c0000c100008140000001c00000804100008d
:10333c0001c000008041000000c10000814000007d
:10334c0000c100008140000001c00000804100006d
:10335c0001c000008041000000c10000814000005d
:10336c0001c000008041000000c10000814000004d
:10337c0000c100008140000001c00000804100003d
:10338c0000c100008140000001c00000804100002d
:10339c0001c000008041000000c10000814000001d
:1033ac0001c000008041000000c10000814000000d
:1033bc0000c100008140000001c0000080410000fd
:1033cc0001c000008041000000c1000081400000ed
:1033dc0000c100008140000001c0000080410000dd
:1033ec0000c100008140000001c0000080410000cd
:1033fc0001c000008041000000c1000081400000bd
:10340c0000c00000c1010000c303000002c20000a4
:10341c00c606000007c7000005c50000c404000074
:10342c00cc0c00000dcd00000fcf0000ce0e000024
:10343c000aca0000cb0b0000c909000008c8000034
:10344c00d818000019d900001bdb0000da1a0000a4
:10345c001ede0000df1f0000dd1d00001cdc000074
:10346c0014d40000d5150000d717000016d60000a4
:10347c00d212000013d3000011d10000d0100000b4
:10348c00f030000031f1000033f30000f2320000a4
:10349c0036f60000f7370000f535000034f4000074
:1034ac003cfc0000fd3d0000ff3f00003efe000024
:1034bc00fa3a00003bfb000039f90000f838000034
:1034cc0028e80000e9290000eb2b00002aea0000a4
:1034dc00ee2e00002fef00002ded0000ec2c000074
:1034ec00e424000025e5000027e70000e6260000a4
:1034fc0022e20000e3230000e121000020e00000b4
:10350c00a060000061a1000063a30000a2620000a3
:10351c0066a60000a7670000a565000064a4000073
:10352c006cac0000ad6d0000af6f00006eae000023
:10353c00aa6a00006bab000069a90000a868000033
:10354c0078b80000b9790000bb7b00007aba0000a3
:10355c00be7e00007fbf00007dbd0000bc7c000073
:10356c00b474000075b5000077b70000b6760000a3
:10357c0072b20000b3730000b171000070b00000b3
:10358c0050900000915100009353000052920000a3
:10359c009656000057970000559500009454000073
:1035ac009c5c00005d9d00005f9f00009e5e000023
:1035bc005a9a00009b5b0000995900005898000033
:1035cc0088480000498900004b8b00008a4a0000a3
:1035dc004e8e00008f4f00008d4d00004c8c000073
:1035ec0044840000854500008747000046860000a3
:1035fc0082420000438300004181000080400000b3
:10360c00256c0000640000004e6f00007720000065
:10361c004c6f00006164000020520000756e0000c9
:10362c0050610000726100006d7300002e2e0000ce
:10363c002e2e0000006c00006f6100006420000062
:10364c00527500006e50000061720000616d000048
:10365c007320000065720000726f00007220000081
:10366c002f200000527500006e6e0000696e000085
:10367c0067200000696e000020660000697200007f
:10368c007374000020740000696d00006500000078
:10369c007273000032330000325f00006261000080
:1036ac00756400003a00000072640000426c000077
:1036bc006f6300006b3a000000770000724200005c
:1036cc006c6f0000636b00003a000000736c00002c
:1036dc0061760000655300006176000065490000ca
:1036ec006e7600003a00000061750000746f0000f7
:1036fc00436f00006e740000726f00006c3a0000a3
:10370c0000720000645300006563000074690000df
:10371c006f6e00003a0000007772000053650000e5
:10372c0063740000696f00006e3a000000620000d4
:10373c0072650000616b000053650000637400004b
:10374c00696f00006e3a0000000000002530000098
:10375c0032640000003a0000004900004e560000a0
:10376c003a200000202000004d4900004e000000cf
:10377c00544900004d4500003a0000004e43000043
:10378c002020000020000000252d000035640000e2
:0c379c00002500002d3200006400000039
:020000040000fa
:1037a8000e00fa00004f9800510798006207980031
:1037b8000002eb00140798000002eb00040f7800e9
:1037c8000e4a9000e14f420003003a002400200016
:1037d800040f78005d003700ee1c07000002780037
:1037e800e10f52000300320054002000040f78005b
:1037f800560037006602470004007800f11c0700f5
:10380800be0290001e029000048242008e4a900080
:10381800054a78001e0290000402e8001407980088
:10382800be0290001e0290008482420044c0b30091
:10383800844a78001e0290000402e80014079800e9
:10384800be0290001e029000848242005e02900038
:103858004822de0004427800844a78001e02900064
:103868000402e80014079800be0290001e029000af
:10387800848242005e02900004427800844a780004
:103888001e0290000402e80014079800be0290008f
:103898001e029000848242006e0290004822de00e0
:1038a80004427800844a78001e0290000402e8006e
:1038b80014079800be0290001e0290008482420005
:1038c8006e02900004427800844a78001e0290003c
:1038d8000402e800140798003e0290009e00900041
:1038e80004007800b51e070000027800240798003d
:1038f800be0290001e029000848242002e029000b8
:103908004822de0004427800844a78001e029000b3
:103918000402e80014079800be0290001e029000fe
:10392800848242002e02900004427800844a780083
:103938001e0290000402e800140798001e00900080
:10394800c81b07000002eb00040f78001e02780075
:10395800040078000080fa00000006001600fa0053
:10396800000f9800110f9800220f98000002eb003a
:10397800040f78001e0a90000402420084027800b6
:10398800a4bb210004824200140798002e0a90006c
:103998000402420063024200340798006e024700a6
:1039a800040078008e1c07007e029000be00900084
:1039b80004007800811e0700000278004407980080
:1039c800fe0290003e0290000482420014427800f9
:1039d8000482fb00540798005e029000c822dd00b4
:1039e8007e0390003e0290000402e80004024300b7
:1039f800144278000482fb000482420054079800b5
:103a0800ce0290005e029000848f520003003200c4
:103a180084002000040f7800340037007e029000f4
:103a2800144278008e0a9000844a780034c0b300ab
:103a3800444f98000002eb00240798002500370047
:103a4800fe0290004e4a90000483fb002e02900074
:103a58000402420004024300048242001442780037
:103a68008482fb001e029000050a78001e02900066
:103a780014027800c822dd001e029000050a7800b2
:103a88001e029000940278007e0390004e4a900037
:103a98008483fb002e02900004024200048243004b
:103aa8000402e80004024300144278000482fb0088
:103ab800848242001e029000050a78001e029000cf
:103ac8000482e800140798002e0290000402e8001f
:103ad80024079800ae0290002e0a9000848f5200ae
:103ae800d7ff39000002eb00040f78001e027800af
:103af800040078000080fa00000006001400fa00b4
:103b080070079800010f9800120f98000002eb0050
:103b1800040f78001e0a900004024200630242006b
:103b2800240798006c024700040078002c1c07004a
:103b38006e029000ae009000040078001f1e07007f
:103b48000002780034079800ee0290002e029000e0
:103b580004824200144278000482fb004407980063
:103b68004e029000c822dd006e0390002e029000e5
:103b78000402e80004024300144278000482fb00b7
:103b88000482420044079800be0290004e02900052
:103b9800848f52000300320084002000040f780054
:103ba800340037006e02900014427800fe02900044
:103bb800844a780034c0b300244f98000002eb0018
:103bc8001407980025003700ee0290002e4a900056
:103bd8000483fb001e02900004024200040243001a
:103be80004824200144278008482fb000e0a90008e
:103bf800050a78000e0a900014027800c822dd0039
:103c08000e0a9000050a78000e0a900094027800c7
:103c18006e0390002e4a90008483fb001e029000e1
:103c280004024200048243000402e8000402430044
:103c3800144278000482fb00848242000e0a90003d
:103c4800050a78000e0a90000482e800040f980024
:103c58001e0290000402e800140798009e029000db
:103c68001e0a9000848f5200d7ff39000002eb0033
:103c7800040f78001e027800040078000080fa0023
:103c8800000006000e00fa00004f98005107980047
:103c9800620798000042eb00244798000002eb00fe
:103ca800040f78000e4a9000e14f420003003a00ea
:103cb80024002000040f780069003700b51b0700b6
:103cc80000027800e10f5200030032005400200087
:103cd800040f78006200370066024700040078008d
:103ce800b81b0700be0290002e4290000482fb0021
:103cf800048242008e4a9000054a78002e429000c5
:103d08000442e80024479800be0290002e4290002a
:103d18000482fb008482420064c0b300844a7800b5
:103d28002e4290000442e80024479800be0290000a
:103d38002e4290000482fb00848242005e029000c2
:103d48004822de0004427800844a78002e4290001f
:103d58000442e80024479800be0290002e429000da
:103d68000482fb00848242005e02900004427800d4
:103d7800844a78002e4290000442e80024479800c4
:103d8800be0290002e4290000482fb008482420012
:103d98006e0290004822de0004427800844a7800cf
:103da8002e4290000442e80024479800be0290008a
:103db8002e4290000482fb00848242006e02900032
:103dc80004427800844a78002e4290000442e800b9
:103dd800244798002e4290008482fb003e02900007
:103de8008500780004007800741d07000002780040
:103df80024079800be0290002e4290000482fb0027
:103e0800848242002e0290004822de00044278009c
:103e1800844a78002e4290000442e8002447980023
:103e2800be0290002e4290000482fb008482420071
:103e38002e02900004427800844a78002e429000b6
:103e48000442e800244798002e4290000482fb00b8
:103e580004007800831a07000002eb00040f7800c2
:103e68001e027800040078000080fa0000000600b6
:103e78000a00fa000002eb00040f7800640020003a
:103e8800140798006802470004007800541b0700d4
:103e98004e0290009e00900004007800471d070025
:103ea8000002780024079800ce0290001e029000bd
:103eb80004824200144278000482fb003407980010
:103ec8003e029000c822dd004e0390001e029000c2
:103ed8000402e80004024300144278000482fb0054
:103ee8000482420034079800ae0290003e0290001f
:103ef800848f52000300320084002000040f7800f1
:103f0800020037000002eb00040f78001e02780060
:103f1800040078000080fa00000006001200fa0091
:103f2800204f98006107980072079800030f9800c7
:103f38000002eb00040f78000042eb0024479800d1
:103f48000002eb00240798002e4a9000e14f42003f
:103f580003003a0024002000240798009600370048
:103f68000c1b070000027800e10f5200030032002a
:103f780054002000240798008f003700680247008b
:103f8800040078000f1b0700ce0290002e4290001c
:103f98000482fb0004824200ae4a9000054a780081
:103fa8002e4290000442e80024479800ce02900078
:103fb8002e4290000482fb008482420004c1b300b8
:103fc800844a78002e4290000442e8002447980072
:103fd800ce0290002e4290000482fb0084824200b0
:103fe8006e0290004822de0004427800844a78007d
:103ff8002e4290000442e80024479800ce02900028
:104008002e4290000482fb00848242006e029000df
:1040180004427800844a78002e4290000442e80066
:1040280024479800ce0290002e4290000482fb00a4
:10403800848242007e0290004822de00044278001a
:10404800844a78002e4290000442e80024479800f1
:10405800ce0290002e4290000482fb00848242002f
:104068007e02900004427800844a78002e42900034
:104078000442e80024479800ce0290002e429000a7
:104088000482fb00848242007e0290000442780091
:1040980004424200844a78002e4290000442e8001c
:1040a800244798001e003700ce0290002e42900050
:1040b8000482fb00848242001e027800040242004f
:1040c8000e0b900004024300140278004822de0020
:1040d80004427800844a78002e4290000442e800a6
:1040e80024479800ce0290002e4290000482fb00e4
:1040f800848242001e027800040242000e0b9000e7
:10410800040243001402780004427800844a7800cc
:104118002e4290000442e800244798001e0fe80051
:104128007e0290009e0f5200dfff3e002e4290005c
:104138008482fb004e02900085007800040078001d
:104148009e1c07000002780034079800ce029000f9
:104158002e4290000482fb00848242003e029000be
:104168004822de0004427800844a78002e429000fb
:104178000442e80024479800ce0290002e429000a6
:104188000482fb00848242003e02900004427800d0
:10419800844a78002e4290000442e80024479800a0
:1041a8002e4290000482fb0004007800ad1907003d
:1041b8000002eb00240798002e029000040078000b
:1041c8000080fa00000006000a00fa000002eb0076
:1041d800040f780064002000140798006802470064
:1041e800040078007e1a07004e0290009e0090009e
:1041f80004007800711c070000027800240798006a
:10420800ce0290001e029000048242001442780000
:104218000482fb00340798003e029000c822dd00ab
:104228004e0390001e0290000402e80004024300be
:10423800144278000482fb0004824200340798008c
:10424800ae0290003e029000848f520003003200bc
:1042580084002000040f7800020037000002eb0001
:10426800040f78001e027800040078000080fa002d
:10427800000006000e00fa00004f98005107980051
:10428800620798000042eb00244798000002eb0008
:10429800040f78000e4a9000e14f420003003a00f4
:1042a80024002000040f780069003700391a07003d
:1042b80000027800e10f5200030032005400200091
:1042c800040f780062003700660247000400780097
:1042d8003c1a0700be0290002e4290000482fb00a8
:1042e800048242008e4a9000054a78002e429000cf
:1042f8000442e80024479800be0290002e42900035
:104308000482fb008482420034c0b300844a7800ef
:104318002e4290000442e80024479800be02900014
:104328002e4290000482fb00848242005e029000cc
:104338004822de0004427800844a78002e42900029
:104348000442e80024479800be0290002e429000e4
:104358000482fb00848242005e02900004427800de
:10436800844a78002e4290000442e80024479800ce
:10437800be0290002e4290000482fb00848242001c
:104388006e0290004822de0004427800844a7800d9
:104398002e4290000442e80024479800be02900094
:1043a8002e4290000482fb00848242006e0290003c
:1043b80004427800844a78002e4290000442e800c3
:1043c800244798002e4290008482fb003e02900011
:1043d8008500780004007800f81b070000027800c8
:1043e80024079800be0290002e4290000482fb0031
:1043f800848242002e0290004822de0004427800a7
:10440800844a78002e4290000442e800244798002d
:10441800be0290002e4290000482fb00848242007b
:104428002e02900004427800844a78002e429000c0
:104438000442e800244798002e4290000482fb00c2
:1044480004007800071907000002eb00040f780049
:104458001e027800040078000080fa0000000600c0
:104468001400fa00000f9800110f98000002eb00ea
:10447800040f78000e0a90000402420084027800bb
:10448800a4bd210004824200140798001e0a90006f
:104498000402420063024200340798006e0247009b
:1044a80004007800ce1907007e029000be0090003c
:1044b80004007800c11b0700000278004407980038
:1044c800fe0290003e0290000482420014427800ee
:1044d8000482fb00540798005e029000c822dd00a9
:1044e8007e0390003e0290000402e80004024300ac
:1044f800144278000482fb000482420054079800aa
:10450800ce0290005e029000848f520003003200b9
:1045180084002000040f78003000370034c0b30056
:10452800444f98000002eb0024079800250037004c
:10453800fe0290004e4a90000483fb002e02900079
:10454800040242000402430004824200144278003c
:104558008482fb001e029000050a78001e0290006b
:1045680014027800c822dd001e029000050a7800b7
:104578001e029000940278007e0390004e4a90003c
:104588008483fb002e029000040242000482430050
:104598000402e80004024300144278000482fb008d
:1045a800848242001e029000050a78001e029000d4
:1045b8000482e800140798002e0290000402e80024
:1045c80024079800ae0290001e0a9000848f5200c3
:1045d800d7ff39000002eb00040f78001e027800b4
:1045e800040078000080fa00000006000e00fa00bf
:1045f800004f980051079800620798000042eb00ae
:10460800244798000002eb00040f78000e4a90003f
:10461800e14f420003003a0024002000040f780014
:10462800690037005b19070000027800e10f5200ab
:104638000300320054002000040f780062003700a5
:1046480066024700040078005e190700be02900069
:104658002e4290000482fb00048242008e4a9000a1
:10466800054a78002e4290000442e800244798004a
:10467800be0290002e4290000482fb008482420019
:1046880014c0b300844a78002e4290000442e80027
:1046980024479800be0290002e4290000482fb003e
:1046a800848242005e0290004822de0004427800c4
:1046b800844a78002e4290000442e800244798007b
:1046c800be0290002e4290000482fb0084824200c9
:1046d8005e02900004427800844a78002e429000de
:1046e8000442e80024479800be0290002e42900041
:1046f8000482fb00848242006e0290004822de00a1
:1047080004427800844a78002e4290000442e8006f
:1047180024479800be0290002e4290000482fb00bd
:10472800848242006e02900004427800844a780035
:104738002e4290000442e800244798002e42900040
:104748008482fb003e029000850078000400780017
:104758001a1b07000002780024079800be02900088
:104768002e4290000482fb00848242002e029000b8
:104778004822de0004427800844a78002e429000e5
:104788000442e80024479800be0290002e429000a0
:104798000482fb00848242002e02900004427800ca
:1047a800844a78002e4290000442e800244798008a
:1047b8002e4290000482fb000400780029180700ac
:1047c8000002eb00040f78001e0278000400780055
:1047d8000080fa00000006000600fa0010079800a2
:1047e800210798000002eb00040f78001e027800f1
:1047f800040078000080fa00000006000e00fa00ad
:10480800004f980051079800620798000042eb009b
:10481800244798000002eb00040f78000e4a90002d
:10482800e14f420003003a0024002000040f780002
:1048380073003700d718070000027800e10f520014
:104848000300320054002000040f78006c00370089
:10485800ee02900004f02f00848f52000600320010
:104868006e029000e00f5200030032002400200086
:10487800040f7800620037006602470004007800e1
:10488800d0180700be0290002e4290000482fb0060
:10489800048242008e4a9000054a78002e42900019
:1048a8000442e80024479800be0290002e4290007f
:1048b8000482fb008482420054c0b300844a78001a
:1048c8002e4290000442e80024479800be0290005f
:1048d8002e4290000482fb00848242005e02900017
:1048e8004822de0004427800844a78002e42900074
:1048f8000442e80024479800be0290002e4290002f
:104908000482fb00848242005e0290000442780028
:10491800844a78002e4290000442e8002447980018
:10492800be0290002e4290000482fb008482420066
:104938006e0290004822de0004427800844a780023
:104948002e4290000442e80024479800be029000de
:104958002e4290000482fb00848242006e02900086
:1049680004427800844a78002e4290000442e8000d
:10497800244798002e4290008482fb003e0290005b
:1049880085007800040078008c1a0700000278007f
:1049980024079800be0290002e4290000482fb007b
:1049a800848242002e0290004822de0004427800f1
:1049b800844a78002e4290000442e8002447980078
:1049c800be0290002e4290000482fb0084824200c6
:1049d8002e02900004427800844a78002e4290000b
:1049e8000442e800244798002e4290000482fb000d
:1049f800040078009b1707000002eb00040f780002
:104a08001e027800040078000080fa00000006000a
:104a18000a00fa000002eb00040f7800640020008e
:104a28001407980068024700040078006c18070013
:104a38004e0290009e009000040078005f1a070064
:104a48000002780024079800ce0290001e02900011
:104a580004824200144278000482fb003407980064
:104a68003e029000c822dd004e0390001e02900016
:104a78000402e80004024300144278000482fb00a8
:104a88000482420034079800ae0290003e02900073
:104a9800848f52000300320084002000040f780045
:104aa800020037000002eb00040f78001e027800b5
:104ab800040078000080fa00000006000200fa00f6
:104ac800000f78001e027800d4e788000080fa0002
:104ad800000006000000fa0004db21001442780000
:104ae8000482fb008402e90024c4210004824200fd
:104af8009442780004db2100144278000482fb0011
:104b08000402e9008605200004034300a4c621002e
:104b1800040243001442780084cf52002d00320072
:104b280004db2100144278000002fd00f0fcb7000d
:104b38000002fd0054c0b3000002fd00f1fcb70004
:104b48000002fd000002eb0094e7880004db21006e
:104b5800144278000482fb008402e90024c4210086
:104b68000482420014427800e04f520002003a00ea
:104b780004f02f00010037000002eb00b4e78800c2
:104b88001400200074e78800e4ce2100d4e78800f0
:104b980005db21009542780074c2b30084cf52002f
:104ba8000500360014c0b3000002fd00b0fdb700d8
:104bb8000002fd001400370004db210014427800d5
:104bc8000442e8000002fd00b0fdb7000002fd004d
:104bd8000d003700a6ed800095ed800004db210074
:104be80014427800060178008500780004407800b7
:104bf800ebfa070000027800e00f520002003a00ca
:104c08000002eb0064e788000080fa00000006005c
:104c18000000fa0064e78000e00f520046003a0006
:104c280004db2100144278000482fb008402e900be
:104c3800a4c121000482420014427800e14f5200ce
:104c480015003a0005db21009542780074c2b300d4
:104c580084cf52000500360014c0b3000002fd00e6
:104c6800b0fdb7000002fd000600370004db21009c
:104c7800144278000442e8000002fd00b0fdb700cd
:104c88000002fd000042eb000002fd00fcfcb70042
:104c98000002fd002b003700c4cf21001442780029
:104ca800e04f52001d00320004db2100144278005e
:104cb8000482fb008402e900a4c12100848242002e
:104cc80014c0b300844a780005db210095427800bf
:104cd80074c2b30084cf52000500360014c0b3007c
:104ce8000002fd00b0fdb7000002fd00060037001d
:104cf80004db2100144278000442e8000002fd00b1
:104d0800b0fdb7000002fd000042eb000002fd000c
:104d1800fcfcb7000002fd000a003700c4cf2100e8
:104d2800144278000442e8000002fd00fcfcb700d1
:104d38000002fd0003003700d4e780004500200092
:104d4800050a7800981707000080fa00000006009e
:104d58000600fa00e40247000e82e8001200200074
:104d6800850078000400780064fb070000027800e2
:104d7800040f78001e027800e00f520034003a0059
:104d880004db2100144278000482fb008402e9005d
:104d9800a4c12100848242000042eb00844a7800ca
:104da8002e4290000482fb000403e9002e4290008a
:104db8000482fb000402e90064024200840242000b
:104dc800a4c6210004824200940278002e029000ba
:104dd800848242006402430004034200a4c6210006
:104de80004024300050a780005db2100954278009b
:104df8002e42900084cf52003b003a0005db210090
:104e08009542780074c2b30084cf52000500360082
:104e180014c0b3000002fd00b0fdb7000002fd00a1
:104e28000600370004db2100144278000442e80041
:104e38000002fd00b0fdb7000002fd000042eb00db
:104e48000002fd00fcfcb7000002fd002600370050
:104e5800c4cf210014427800e04f52001d003200f8
:104e680004db2100144278000482fb008402e9007c
:104e7800a4c121008482420014c0b300844a78008f
:104e880005db21009542780074c2b30084cf52003c
:104e98000500360014c0b3000002fd00b0fdb700e5
:104ea8000002fd000600370004db210014427800f0
:104eb8000442e8000002fd00b0fdb7000002fd005a
:104ec8000042eb000002fd00fcfcb7000002fd0000
:104ed80005003700c4cf2100144278000442e800de
:104ee80004007800fcfcb7001e027800040078007b
:104ef8000080fa00000006000400fa0064e7800061
:104f0800e00f520058003200d4e78000344290008d
:104f18000482fb006123b9000082eb008082eb0071
:104f28000602420087824a00f6002000070020009f
:104f3800860f5200878f5a003d003e00040601008c
:104f4800250037003a003700190037000c003700f9
:104f5800330037002a0037003500370034003700a7
:104f68003300370032003700310037003000370097
:104f78002f0037002e0037002d003700240037009f
:104f8800d4e7800034039000d4e78000a4029000a6
:104f98000e82e80006017800850078000400780099
:104fa8006efa070000027800040f7800230037002b
:104fb800d4e78000b4029000d4e780002402900077
:104fc800850078000400780025fd070000027800bd
:104fd800040f780019003700d4e78000b40290006d
:104fe800d4e780003402900085007800040078003f
:104ff800f9fd070000027800040f78000f00370061
:105008009bfb070000027800040f78000b003700b4
:105018006dfc070000027800040f780007003700d5
:105028007bfe070000027800040f780003003700b9
:1050380094002000040f7800000000001e02780091
:10504800e00f520004003a00d4e780003500200049
:10505800050a780007003700d4e7800055002000d3
:10506800050a78000300370039ff070000027800be
:10507800040f7800cc1607000080fa000000060034
:105088000200fa00c316070000027800040f780037
:10509800040220009e027800848f520002003a0029
:1050a80095ff070005003700040420009e027800e1
:1050b800848f520001003a00d5fe07000080fa00f4
:1050c800000006000200fa00448221001442780021
:1050d800040078006afcb700b1c6210080d821001e
:1050e800941007000002eb00040f78000800370056
:1050f8009e0278006482420084024200a4c6210015
:10510800048242008002eb00050a78001e0fe800c6
:10511800740220009e027800848f5200f4ff34004d
:1051280044822100144278000440780002170700e6
:105138000080fa00000006000600fa002007980028
:105148002e02900071026a0004f0a7000402ea002f
:105158000402ea004f22de00244798000002eb0018
:10516800040f78000500370024cc21001e024200fd
:10517800ae429000054a78001e0fe8007402200035
:105188009e027800848f5200f7ff34000080fa00f6
:10519800000006000600fa00100798002107980092
:1051a8001e009000ae009000681507000002eb009a
:1051b800040f780014003700a4c121009e024200a9
:1051c8000042eb00844a780024c421009e02420079
:1051d8000042eb00844a78009e0278006482420014
:1051e80084024200a4c62100048242008002eb002f
:1051f800050a780024cc21009e0242000042eb0000
:10520800844a78001e0fe800740220009e0278008d
:10521800848f5200e8ff34000080fa000000060086
:105228001800fa0034c18000e10f520097003a00dc
:1052380080d82100530f07000002be001407980011
:10524800250798000002eb00040f78008b00370058
:105258001e027800ea22b90084027800a4822100a4
:1052680004824200340798003e02900044029000f5
:105278000500200044079800550798003e0290005a
:10528800b4029000240290000401be001e009000a9
:10529800ae0090006e10070000027800e10f420097
:1052a800710032003e02900044029000e00f52006c
:1052b8002c003a003e029000b402900024029000b4
:1052c8001e039000ae0390000402530085825b0029
:1052d80064079800750798003e02900094027800d1
:1052e8003e02900014029000048242000500200053
:1052f800040f9800150f98006e029000fe029000af
:105308000e0990009e0990000400be00ffec070003
:105318000002be00240f9800350f98003e0290004e
:10532800140278006123b8002e0a9000be0a90008b
:10533800840f5300858f5b000500360024c42100cc
:105348009e02420014c0b300844a78004a00370025
:1053580024c421009e0242000042eb00844a7800e7
:10536800450037003e029000b402900024029000ed
:105378001e039000ae0390000402530085825b0078
:1053880064079800750798003e0290009402780020
:105398003e029000140290000482420005002000a2
:1053a800040f9800150f98006e029000fe029000fe
:1053b8000e0990009e0990000400be00c3ec07008f
:1053c8000002be00240f9800350f98002e0b9000a5
:1053d800be0b90004e029000de029000840f530036
:1053e800858f5b001b0031006e029000fe0290006a
:1053f8000e0990009e0990000400be00c3ec07004f
:105408000002be00240f9800350f98003e0290005d
:10541800140278006123b8002e0a9000be0a90009a
:10542800840f5300858f5b000500360024c42100db
:105438009e02420014c0b300844a78000e00370070
:1054480024c421009e0242000042eb00844a7800f6
:105458000900370024c421009e0242000042eb00ec
:10546800844a78000400370024c421009e024200c8
:105478000042eb00844a78001e0fe8007402200006
:105488009e027800848f520071ff34000080fa0079
:10549800000006000200fa00d4e7800034429000c1
:1054a8000482fb006123b9000082eb008082eb00dc
:1054b8000602420087824a00f6002000070020000a
:1054c800860f5200878f5a0062003e0004060100d2
:1054d800290037005f0037001a0037000c0037003a
:1054e8004f003700310037005a00370059003700a5
:1054f800580037005700370056003700550037006e
:10550800540037005300370052003700340037008a
:10551800d4e7800034039000d4e78000a402900010
:10552800d4e78000244290000601780085007800c6
:10553800044078009af8070000027800040f780009
:1055480046003700d4e7800034039000d4e7800099
:10555800a4029000d4e7800024429000060178005d
:10556800850078000440780042fb070000027800bc
:10557800040f780039003700d4e780003403900026
:10558800d4e78000a4029000d4e780002442900071
:1055980006017800850078000440780013fc0700b5
:1055a80000027800040f78002c003700d4e7800050
:1055b80044039000d4e78000a4029000d4e7800060
:1055c80024429000060178008500780004407800a5
:1055d800acf9070000027800040f78001f003700bc
:1055e800d4e78000d4039000d4e78000340390000f
:1055f800d4e78000a4029000d4e780002442900001
:10560800870178000601780085007800044078005a
:1056180042fa070000027800040f78000f003700f4
:10562800d4e7800044039000d4e78000a4029000ef
:10563800d4e78000244290000601780085007800b5
:10564800044078006dfc070000027800040f780021
:105658000200370064002000040f78001e02780062
:10566800e00f520005003a00d4e780002500200032
:10567800050a78001400200064e788000080fa001a
:10568800000006000200fa00421507000002780038
:10569800040f78001e027800e10f52000b003a0058
:1056a800d4e78000e00f520006003200d4e7800003
:1056b80014027800e10f520002003a0075ff07005b
:1056c8002700370003fd07002500370004022000eb
:1056d8009e027800848f52001c003a0006fe0700e4
:1056e800d4e78000e00f52001d00320064e780001c
:1056f800e00f52001a003200d4e78000140278004c
:10570800e30f52000e003a00d4e7800024429000d4
:105718000482fb000403e900d4e7800024429000df
:105728000482fb008402e90024c4210004824200b0
:105738001442780025cc210085024300844a780071
:105748000002eb00d4e788000500370004042000bd
:105758009e027800848f520001003a002cfd070059
:105768000080fa00000006000200fa00004f7800ee
:105778009e02fb00040820000482620047a2de00ab
:1057880004427800614262000482fb006102620008
:105798004222dd0026728000b5ff2f0085026300db
:1057a80005027200247288009e02fb000404200097
:1057b8000482620046a2de00044278006142620070
:1057c8000482fb006102620004024200267280002b
:1057d800d5ff2f008502630005027200247288003d
:1057e8009e02fb00040220000482620045a2de0043
:1057f80004427800614262000482fb006102620098
:1058080026728000e5ff2f00850263000502720002
:10581800247288001e02fb007002620044a2de00af
:1058280004427800614262000482fb006102620067
:1058380004024200a6728000d5ff2f008502630093
:1058480005027200a47288001e02fb006802620052
:1058580043a2de0004427800614262000482fb0039
:1058680061026200a6728000e5ff2f0085026300d6
:1058780005027200a47288001e02fb006402620026
:1058880042a2de0004427800614262000482fb000a
:10589800610262004722dd00a6718000f5f72f0043
:1058a8008502630005027200a47188001e02fb00d5
:1058b800620262000482d100044278006142620000
:1058c8000482fb00610262004e22dd002671800026
:1058d800f5ff2b0085026300050272002471880021
:1058e8001e427800614262006142620061426200c9
:1058f8000482fb00610262004d22dd0026718000f7
:10590800f5ff2d00850263000502720024718800ee
:105918000080fa00000006000200fa000002eb0016
:10592800040f780000c0eb008fff070044cea900e9
:10593800446ea800448ea900402ea8000000000074
:105948001472800062026200e00f52000900320007
:1059580014c0b300750c20001e037800850f530097
:10596800010034000042eb001e0fe800e04f520037
:10597800f3ff3a00448ea800402ea9000080fa00e8
:10598800000006000200fa00004f7800e2ff07005e
:1059980044cea800448ea8001e4278000440780037
:1059a80071ff0700446ea900446ea8000080fa0049
:1059b800000006000200fa00004f7800d6ff07003a
:1059c80044cea900448ea8001e40780066ff070058
:1059d800446ea900446ea8000080fa00000006008a
:1059e8000000fa002faea9002fcea9003eeea900b4
:1059f8004e0ea9004e2ea9004e4ea9004e6ea900cb
:105a08004e8ea9004eaea9004ecea9004eeea900ba
:105a18006ecea900446ea800247280004322de00e6
:105a2800614262000482fb00610262004722dd00dd
:105a380026728000f5f72f008502630005027200c8
:105a480024728800247280004722de0061426200ce
:105a58000482fb00610262004422dd00267280009d
:105a6800f5fe2f008502630005027200247288008b
:105a7800247280004422de00614262000482fb003e
:105a8800610262004522dd0026728000f5fd2f00cc
:105a98008502630005027200247288002472800067
:105aa8004522de00614262000482fb00610262005e
:105ab8004622dd0026728000f5fb2f008502630078
:105ac800050272002472880064cea900406ea90005
:105ad800047280004322de00614262000482fb00ff
:105ae800610262004722dd0006728000f5f72f0090
:105af8008502630005027200047288000472800047
:105b08004722de00614262000482fb0061026200fb
:105b18004422dd0006728000f5fe2f008502630036
:105b28000502720004728800047280004422de00bc
:105b3800614262000482fb00610262004522dd00ce
:105b480006728000f5fd2f008502630005027200d1
:105b580004728800047280004522de0061426200ff
:105b68000482fb00610262004622dd0006738000a9
:105b7800f5fb2f008502630005027200047388009c
:105b8800047380004622de00614262000482fb004a
:105b9800610262004622dd0006728000f5fb2f00dc
:105ba80085026300050272000472880044eea800b2
:105bb80044aea90064cea900404ea900402ea90019
:105bc800400ea900502ea900500ea90030eea900e1
:105bd80021cea90021aea9000080fa00000006002d
:105be8000200fa00004f7800114798001e40780024
:105bf80064ff07001e429000044078006dff070014
:105c08000080fa00000006000400fa00004f780047
:105c1800110798001e4078005aff07001e029000e6
:105c2800044278000440780062ff07001e029000da
:105c38004822de0004427800044078005dff070037
